:020000040800F2
:10000000C8950020790200087D0200087F020008E0
:100010008102000883020008850200080000000039
:10002000000000000000000000000000E1010008E6
:100030008902000800000000250200081F4F000888
:100040008F0200088F0200088F0200088F0200084C
:100050008F0200088F0200088F0200088F0200083C
:100060008F0200088F0200088F0200088F0200082C
:100070008F0200088F0200088F0200088F0200081C
:100080008F0200088F0200088F0200088F0200080C
:100090008F0200088F0200088F0200088F020008FC
:1000A0008F0200088F0200088F0200088F020008EC
:1000B0008F0200086D4F0008910800088F020008A9
:1000C0008F0200088F0200088F0200088F020008CC
:1000D0008F0200088F0200088F0200088F020008BC
:1000E0008F0200088F0200088F0200088F020008AC
:1000F0008F0200088F0200088F0200088F0200089C
:100100008F0200088F0200088F0200088F0200088B
:100110008F0200088F0200088F0200088F0200087B
:100120008F0200088F0200088F0200088F0200086B
:1001300000F002F800F045F80AA090E8000C8244B4
:100140008344AAF10107DA4501D100F03AF8AFF291
:10015000090EBAE80F0013F0010F18BFFB1A43F0A5
:1001600001031847A85D0000C85D0000103A24BFD5
:1001700078C878C1FAD8520724BF30C830C144BF0C
:1001800004680C607047000000230024002500264E
:10019000103A28BF78C1FBD8520728BF30C148BFEA
:1001A0000B607047752904F07787632905F07F801D
:1001B000732905F08480002070471FB51FBD10B55E
:1001C00010BD05F0E0F81146FFF7F7FF03F0E9F97D
:1001D00005F0FEF803B4FFF7F2FF03BC00F0E4F90A
:1001E000224B19680868B0E8F00F80F30988BFF364
:1001F0006F8F4FF0000080F311884EF00D0E7047A6
:100200000000000006480068006880F3088862B6B5
:1002100061B6BFF34F8FBFF36F8F00DF00BF00BF2A
:1002200008ED00E0EFF30980BFF36F8F0F4B1A6802
:1002300020E9F00F106008B54FF0BF0080F311887F
:10024000BFF34F8FBFF36F8F03F0CFFE4FF000006F
:1002500080F31188BDE8084019680868B0E8F00F1D
:1002600080F30988BFF36F8F704700BF2C00002018
:10027000EFF305807047000008480047FEE7FEE7FF
:10028000FEE7FEE7FEE7FEE7FEE7FEE7FEE7FEE746
:1002900003480449044A054B704700003101000837
:1002A000C8450020C8950020C8550020C85500202A
:1002B00082490143824A11607047824A0A400243E0
:1002C0007F4B1B1F1A6070472DE9F04104460E4614
:1002D00017462002FFF7ECFFC4F1040007FA00F50F
:1002E0000F2020413040054305F00F05DA1703EBDE
:1002F000D2625211920002F1E022D2F80021194696
:100300004FEAE37C03EBDC6C4FEA6C1CA3EB4C186C
:100310004FF0010C0CFA08FC42EA0C0218464FEAB6
:10032000E37C03EBDC6C4FEA6C1C4FEA8C0C0CF1A9
:10033000E02CCCF800216448C05C40EA051062491A
:10034000C854BDE8F08170B5034614460A46CE177E
:1003500001EB9676C6F38700CE1701EB9676B610C2
:10036000A1EB8606B606350E584A926942F00102A4
:10037000564EB2614FEAB63252F820200F26AE40F8
:10038000B243534E46F82020324652F8202003FA5A
:1003900005F616434E4A42F820604E4A126801267E
:1003A0008E4032434B4E32604A4A08321268012670
:1003B0008E40B243474E08363260321D1668012225
:1003C0008A409643434A0C32166044B1121F1268A9
:1003D00001268E4032433F4E0836326008E03D4AE7
:1003E0000C32126801268E4032433A4E0C3632608F
:1003F00070BD30B5044600253448006840F0010067
:100400003249086008464068334908402F4948602F
:1004100008460068314908402C49086008460068D1
:1004200020F4802008600846406820F4FE00486000
:100430004FF41F00886000214FF00060FFF73DFF80
:100440002248006840F480302049086000BF1F48FF
:100450000068400C0028FAD04FF480601B494860C7
:10046000A01EC4B20846406840EA8440486008467E
:10047000406840F4803048601948006840F032001D
:10048000174908601148006840F080700F49086003
:1004900000BF0E480068400E0028FAD00B484068A4
:1004A00040F002000949486004E0084840688508B7
:1004B00005F00305022DF8D130BD00000000FA055B
:1004C0000CED00E080FFFF1F00E400E000100240A0
:1004D00008000140000401400000FFF8FFFFF6FEA5
:1004E000002002404FF0E021096921F004014FF0A3
:1004F000E0221161C21700EB5272C2F3C702284B0F
:100500001A701946097801EB4102C2EBC1114FF68E
:10051000FF7202EAC101234A118070470146204A56
:1005200012784A434FF0E0235A6100229A611A463A
:10053000126942F001021A6100BF4FF0E022106917
:1005400000F001021AB100F48032002AF5D04FF019
:10055000E022126922F001024FF0E0231A6100222A
:100560009A61704701460F4A12884A434FF0E023D0
:100570005A6100229A6101221A6100BF4FF0E02205
:10058000106900F001021AB100F48032002AF5D09F
:1005900000224FF0E0231A619A6170477047000013
:1005A0000000002002000020014600BF7047704795
:1005B00000BF3B4A128802F04002002AF9D0C2B2C2
:1005C000374B1B1D1A8070470BE000BF3449098868
:1005D00001F040010029F9D010F8011B304A121D2A
:1005E000118001780029F0D170472DE9F05F0546B0
:1005F0000E46300105F03AF881462A4905FB01F024
:1006000005F034F88246494604F04EFF0746384666
:1006100005F00CF884B2204605F028F883463946E8
:1006200005F004F982464FF0834105F033F8814626
:1006300004F0FCFF80464FF6FF7000EA041404EB60
:10064000080084B21848806940F0040016498861A7
:100650000846806940F4804088611448006820F4AE
:100660007F60124908600846006840F40B6008602B
:100670000D48C06840F480400B49C8600846C06817
:1006800020F48040C860064808300480001D0088BF
:1006900042F20C01084302490C310880BDE8F09F8A
:1006A0000038014040420F000010024004080140A1
:1006B0001948806940F0040017498861084680693C
:1006C00040F0100088611548006820F4700013495C
:1006D00008600846006840F40000086008460069A9
:1006E00040F0200008617047014600200C4A127853
:1006F00052B10C4A12683AB90022094B1A70094AE1
:1007000012683AB9012005E0064A1268012A01D1AF
:10071000034B1A70704700000010024000100140A7
:100720000C000020140122421848806940F00400A7
:10073000164988610846806940F0200088611448A5
:10074000006820F00F00124908600846006840F079
:10075000030008600E480C30006820F480700C49DB
:100760000C3108600B48006820F47060094908608B
:100770000846006840F44070086006481030006881
:1007800020F0040003491031086070470010024057
:10079000040801400014014070B504460D461C4891
:1007A000C06940F002001A49C8611A48008820F068
:1007B000100018490880084600880880084600880C
:1007C00020F06000088008460088088008460088FD
:1007D00040F08000088000200E4924310880081D68
:1007E0000480001D05800B480C30008840F001009B
:1007F00008490C3108800748008840F0010005498D
:1008000008801D23032211460220FFF75DFD70BD05
:10081000001002400004004070B504460D46264812
:10082000C06940F004002449C8612448008820F0D1
:100830001000224908800846008808800846008881
:1008400020F060000880084600880880084600887C
:1008500040F0800008800020184924310880081DDD
:100860000480001D058015480C30008840F0010010
:1008700012490C3108801148008840F001000F49EE
:1008800008801E23032211460220FFF71DFD70BDC4
:1008900010B50A481030008800F0010050B108A0DF
:1008A00004F07CFB05481030008820F0010003496B
:1008B0001031088010BD0000001002400008004008
:1008C0007465737400000000FE4909680021FD4A48
:1008D00011601146096841F088311160111D0968E5
:1008E0000021121D11601146096841F08831116024
:1008F000FF21F44A0C321160F349096941F4807117
:10090000F14A11611146096941F0800111611146F6
:10091000496941F4007151611146496941F0400152
:100920005161E8490831096888B21146096941F006
:10093000400111611146096941F400711161E149F9
:1009400009680021DF4A11601146096841F033311E
:100950001160111D09680021121D116011460968FE
:1009600041F0333111607047D74A526942F48072C6
:10097000D54B5A611A46126942F040021A611A4672
:10098000526942F480725A611A46526942F4007206
:100990005A61CC4A0C3210601A46526942F0800209
:1009A0005A611A46126942F080021A611A461269A7
:1009B00042F400721A611A46126942F480721A6196
:1009C0001A46126942F040021A611A46526942F40C
:1009D00000725A61BB4A0C3211601A46526942F0E9
:1009E00080025A611A46126942F080021A611A4660
:1009F000126942F400721A61704700B50346B248AA
:100A0000406940F48070B04948610846006940F090
:100A1000400008610846406940F48070486108461B
:100A2000406940F400704861A6480C3003600846F5
:100A3000406940F0800048610846006940F080004D
:100A400008610846006940F400700861FFF73CFF48
:100A500000BD9D4A526942F480729B4B5A611A460E
:100A6000126942F040021A611A46526942F48072D9
:100A70005A611A46526942F400725A612A22914B15
:100A80000C331A60904A526942F080028E4B5A61D0
:100A90001A46126942F080021A611A46126942F43B
:100AA00000721A611A46126942F480721A611A467B
:100AB000126942F040021A611A46526942F4007209
:100AC0005A6102127F4B0C331A607F4A526942F01E
:100AD00080027D4B5A611A46126942F080021A6107
:100AE0001A46126942F400721A611A46126942F4F7
:100AF00080721A611A46126942F040021A611A465F
:100B0000526942F400725A61C2B26E4B0C331A60E1
:100B10006D4A526942F080026B4B5A611A46126963
:100B200042F080021A611A46126942F400721A6198
:100B30001A46526942F480725A611A46126942F0AA
:100B400040021A611A46526942F480725A611A468A
:100B5000526942F400725A612B225A4B0C331A60CC
:100B6000594A526942F08002574B5A611A4612693B
:100B700042F080021A611A46126942F400721A6148
:100B80001A46126942F480721A611A46126942F0DA
:100B900040021A611A46526942F400725A610A12FE
:100BA000484B0C331A60484A526942F08002464B67
:100BB0005A611A46126942F080021A611A46126995
:100BC00042F400721A611A46126942F480721A6184
:100BD0001A46126942F040021A611A46526942F4FA
:100BE00000725A61CAB2374B0C331A60364A5269E6
:100BF00042F08002344B5A611A46126942F0800278
:100C00001A611A46126942F400721A6170472E4A3C
:100C1000526942F480722C4B5A611A46126942F0B2
:100C200040021A611A46526942F480725A611A46A9
:100C3000526942F400725A612A22224B0C331A6024
:100C4000214A526942F080021F4B5A611A461269CA
:100C500042F080021A611A46126942F400721A6167
:100C60001A46126942F480721A611A46126942F0F9
:100C700040021A611A46526942F400725A61021225
:100C8000104B0C331A60104A526942F080020E4B2E
:100C90005A611A46126942F080021A611A461269B4
:100CA00042F400721A611A46126942F480721A61A3
:100CB0001A46126942F040021A611A46526942F419
:100CC000007203E0000C0140001001405A61C2B202
:100CD000FB4B1A60FB4A526942F08002F94B5A61A1
:100CE0001A46126942F080021A611A46126942F4E9
:100CF00000721A611A46526942F480725A611A46A9
:100D0000126942F040021A611A46526942F4807236
:100D10005A611A46526942F400725A612B22E84B1A
:100D20001A60E84A526942F08002E64B5A611A465C
:100D3000126942F080021A611A46126942F4007286
:100D40001A611A46126942F480721A611A461269CF
:100D500042F040021A611A46526942F400725A6126
:100D60000A12D74B1A60D74A526942F08002D54B1B
:100D70005A611A46126942F080021A611A461269D3
:100D800042F400721A611A46126942F480721A61C2
:100D90001A46126942F040021A611A46526942F438
:100DA00000725A61CAB2C64B1A60C64A526942F012
:100DB0008002C44B5A611A46126942F080021A61DD
:100DC0001A46126942F400721A611A46526942F4D4
:100DD00080725A611A46126942F040021A611A463C
:100DE000526942F480725A611A46526942F40072A2
:100DF0005A612C22B24B1A60B24A526942F0800208
:100E0000B04B5A611A46126942F080021A611A46C2
:100E1000126942F400721A611A46126942F4807231
:100E20001A611A46126942F040021A611A46526962
:100E300042F400725A61A44A1288A14B1A60A14A76
:100E4000526942F080029F4B5A611A46126942F081
:100E500080021A611A46126942F400721A617047E0
:100E600010B5984B5B6943F48073964C63612346DD
:100E70001B6943F04003236123465B6943F480739D
:100E8000636123465B6943F4007363612A238C4CDE
:100E900023608C4B5B6943F080038A4C636123467B
:100EA0001B6943F08003236123461B6943F40073ED
:100EB000236123461B6943F48073236123461B6926
:100EC00043F04003236123465B6943F4007363618D
:100ED00003127B4C23607B4B5B6943F08003794CAE
:100EE000636123461B6943F08003236123461B692A
:100EF00043F40073236123461B6943F48073236129
:100F000023461B6943F04003236123465B6943F496
:100F100000736361C3B26A4C23606A4B5B6943F040
:100F20008003684C636123461B6943F0800323619F
:100F300023461B6943F40073236123465B6943F432
:100F40008073636123461B6943F04003236123469A
:100F50005B6943F48073636123465B6943F4007308
:100F600063612B23564C2360564B5B6943F080032F
:100F7000544C636123461B6943F08003236123467D
:100F80001B6943F40073236123461B6943F4807398
:100F9000236123461B6943F04003236123465B69B9
:100FA00043F4007363610B12454C2360454B5B694E
:100FB00043F08003434C636123461B6943F0800385
:100FC000236123461B6943F40073236123461B6995
:100FD00043F48073236123461B6943F0400323617C
:100FE00023465B6943F400736361CBB2344C2360E6
:100FF000344B5B6943F08003324C636123461B69C9
:1010000043F08003236123461B6943F4007323618B
:1010100023465B6943F48073636123461B6943F095
:101020004003236123465B6943F480736361234675
:101030005B6943F4007363612C23214C2360214BD3
:101040005B6943F080031F4C636123461B6943F0D7
:101050008003236123461B6943F400732361234605
:101060001B6943F48073236123461B6943F04003EB
:10107000236123465B6943F400736361104B1A607C
:1010800023465B6943F08003636123461B6943F099
:101090008003236123461B6943F40073236110BD61
:1010A0002DE9F04F05460E4617469846DDF824A078
:1010B0004FF0000B781B401C1FFA80FB34465EE0AB
:1010C0000C0C0140001001400E0000202146284673
:1010D000FFF7BFFCFE48406940F48070FC4948615E
:1010E0000846006940F0400008610846406940F445
:1010F000807048610846406940F4007048612C20C7
:10110000F4490860F248406940F08000F0494861C5
:101110000846006940F0800008610846006940F414
:10112000007008614FF0000925E0E948006940F4CB
:101130008070E74908610846006940F04000086196
:101140000846406940F400704861E248C0F800A0D9
:101150000846406940F0800048610846006940F058
:10116000800008610846006940F40070086109F1D8
:1011700001001FFA80F9D945D7DB601C84B24445D1
:10118000A4DDBDE8F08F2DE9F04106460F46394653
:101190003046FFF75EFCCE48406940F48070CC4991
:1011A00048610846006940F040000861084640690F
:1011B00040F4807048610846406940F4007048611E
:1011C0002E20C4490860C248406940F08000C049F0
:1011D00048610846006940F08000086108460069DF
:1011E00040F4007008614FF08830BA490C3908604B
:1011F000091D08604FF6FF70B6490860FFF764FBF1
:10120000FFF762FB0446FFF75FFB8046E5B24FF64F
:10121000FF7000EA05254FF03330AE490C39086005
:10122000091D08604FF6FF70AA490860E012C0026D
:10123000A91240EA411040EAE820BDE8F0812DE91A
:10124000F04F05460E4617469846DDF824A04FF0AD
:10125000000B781B401C1FFA80FB344658E02146E7
:101260002846FFF7F6FB9A48406940F48070984999
:1012700048610846006940F040000861084640693E
:1012800040F4807048610846406940F4007048614D
:101290002C20904908608E48406940F080008C49BD
:1012A00048610846006940F080000861084600690E
:1012B00040F4007008614FF0000925E0844800699F
:1012C00040F48070824908610846006940F040009F
:1012D00008610846406940F4007048617D48C0F8E4
:1012E00000A00846406940F0800048610846006957
:1012F00040F0800008610846006940F40070086111
:1013000009F101001FFA80F9D945D7DB601C84B2CE
:101310004445A4DDBDE8F08F70B5044600266E4854
:1013200005884088454300210846FFF792FB68483E
:10133000406940F48070664948610846006940F0A1
:10134000400008610846406940F4807048610846E2
:10135000406940F4007048612C205E4908605C4898
:10136000406940F080005A4948610846006940F0F1
:10137000800008610846006940F40070086100BF01
:1013800021E05348006940F48070514908610846E3
:10139000006940F0400008610846406940F4007070
:1013A00048614C4804600846406940F0800048614C
:1013B0000846006940F0800008610846006940F472
:1013C00000700861761CAE42DBD370BD70B5054677
:1013D0000824362640488079012818D1082D15D2D6
:1013E000DFE805F00406080A0C0E101206250DE0D1
:1013F00007250BE0042509E0052507E0012505E0A8
:10140000002503E0032501E0022500BF00BF3248AC
:10141000808849F24131884259D1082D1CD2DFE839
:1014200005F00406090C0F12151800BF14E044F073
:10143000800411E044F040040EE044F0C0040BE0EE
:1014400044F0200408E044F0600405E044F0A00407
:1014500002E044F0E00400BF00BF21463046FFF741
:1014600083FA1B48406940F4807019494861084676
:10147000006940F0400008610846406940F480700F
:1014800048610846406940F400704861124840894C
:10149000104908600E48406940F080000C494861DE
:1014A0000846006940F0800008610846006940F481
:1014B000007008610846006940F4807008610846C1
:1014C000006940F0400008610846406906E03DE1DF
:1014D000001001400C0C01409000002040F400700E
:1014E00048610020FE490860FE48406940F08000E5
:1014F000FC4948610846006940F0800008610846E0
:10150000006940F4007008610846006940F480708A
:1015100008610846006940F04000086108464069DB
:1015200040F4007048610020ED490860ED484069D2
:1015300040F08000EB4948610846006940F08000B7
:1015400008610846006940F40070086108460069B7
:1015500040F4807008610846006940F0400008616E
:101560000846406940F400704861DF480088401E2A
:101570000012DB490860DB48406940F08000D9492F
:1015800048610846006940F080000861084600692B
:1015900040F4007008610846006940F480700861FA
:1015A0000846006940F0400008610846406940F480
:1015B00000704861CC480078401EC0B2C84908603D
:1015C000C848406940F08000C64948610846006943
:1015D00040F0800008610846006940F4007008612E
:1015E0000846406940F4807048610846006940F050
:1015F000400008610846406940F480704861084630
:10160000406940F400704861B7488089B449086077
:10161000B448406940F08000B2494861084600691A
:1016200040F0800008610846006940F400700861DD
:101630000846006940F4807008610846006940F07F
:10164000400008610846406940F40070486100208D
:10165000A3490860A348406940F08000A14948615F
:101660000846006940F0800008610846006940F4BF
:10167000007008610846006940F4807008610846FF
:10168000006940F0400008610846406940F400707D
:1016900048610020924908609248406940F080000B
:1016A000904948610846006940F08000086108469A
:1016B000006940F4007008610846006940F48070D9
:1016C00008610846006940F040000861084640692A
:1016D00040F40070486184484088401E00128049F0
:1016E00008608048406940F080007E4948610846B3
:1016F000006940F0800008610846006940F400700D
:1017000008610846006940F4807008610846006975
:1017100040F0400008610846406940F400704861AC
:1017200071488078401EC0B26D4908606D484069BC
:1017300040F080006B4948610846006940F0800035
:1017400008610846006940F40070086170BD10B57A
:101750000446ACB9002064498871F02008804FF439
:10176000A07048800846808849F2413188421CD1E7
:101770002C205D4908812A2048812B20888114E093
:101780000120594988714FF4A0700880F0204880EA
:101790000846808849F24131884206D12C205249BE
:1017A00008812A2048812B2088810020FFF70EFE27
:1017B00010BD10B500244D48806940F010004B4921
:1017C00088610846806940F00800886108468069A1
:1017D00040F0010088614648406840F0806044491C
:1017E00048604048006820F07F403E490860084655
:1017F000006840F04C500860084640686FF30B00EA
:1018000048600846406840F2333108433549486033
:1018100033480C380068002031490C39086008460C
:10182000006840F033300860081D00680020091D82
:1018300008600846006840F0333008602948406975
:1018400040F48070274948610846006940F0400034
:1018500008610846406940F4807048610846406964
:1018600040F400704861D3201D4908601D4840695C
:1018700040F080001B4948610846006940F0800044
:1018800008610846006940F400700861FFF71CF821
:10189000FFF71AF8FFF718F84FF6FF7101EA002476
:1018A000FFF712F80443104884800E48406940F462
:1018B00080700C4948610846006940F040000861AA
:1018C0000846406940F4807048610846406940F429
:1018D00000704861CF20024908600248406909E071
:1018E0000C0C01400010014090000020001002404C
:1018F0000000014040F08000FE4948610846006950
:1019000040F0800008610846006940F400700861FA
:101910000846006940F4807008610846006940F09C
:10192000400008610846406940F4007048610020AA
:10193000F1490860EF48406940F08000ED49486196
:101940000846006940F0800008610846006940F4DC
:10195000007008610846006940F48070086108461C
:10196000006940F0400008610846406940F400709A
:101970004861C120E0490860DE48406940F08000CD
:10198000DC4948610846006940F08000086108466B
:10199000006940F4007008610846006940F48070F6
:1019A00008610846006940F0400008610846406947
:1019B00040F4007048613020CF490860CD4840694C
:1019C00040F08000CB4948610846006940F0800043
:1019D00008610846006940F40070086108464069E3
:1019E00040F4807048610846006940F0400008619A
:1019F0000846406940F4807048610846406940F4F8
:101A000000704861ED20BC490860BA48406940F068
:101A10008000B84948610846006940F080000861CC
:101A20000846006940F4007008610846006940F407
:101A3000807008610846006940F04000086108466F
:101A4000406940F4007048616420AB490860A948CF
:101A5000406940F08000A74948610846006940F0AD
:101A6000800008610846006940F40070086108467B
:101A7000006940F4807008610846006940F0400049
:101A800008610846406940F40070486103209A49A3
:101A900008609848406940F08000964948610846CF
:101AA000006940F0800008610846006940F4007059
:101AB00008610846006940F48070086108460069C2
:101AC00040F0400008610846406940F400704861F9
:101AD0001220894908608748406940F080008549A4
:101AE00048610846006940F08000086108460069C6
:101AF00040F4007008610846006940F48070086195
:101B00000846006940F0400008610846406940F41A
:101B1000007048618120784908607648406940F04B
:101B20008000744948610846006940F080000861FF
:101B30000846006940F4007008610846406940F4B6
:101B4000807048610846006940F04000086108461E
:101B5000406940F4807048610846406940F4007074
:101B60004861E820644908606248406940F08000AC
:101B7000604948610846006940F0800008610846F5
:101B8000006940F4007008610846006940F4807004
:101B900008610846006940F0400008610846406955
:101BA00040F40070486185205349086051484069FD
:101BB00040F080004F4948610846006940F08000CD
:101BC00008610846006940F4007008610846006931
:101BD00040F4807008610846006940F040000861E8
:101BE0000846406940F4007048611020424908608E
:101BF0004048406940F080003E494861084600691D
:101C000040F0800008610846006940F400700861F7
:101C10000846006940F4807008610846006940F099
:101C2000400008610846406940F4007048617A202D
:101C3000314908602F48406940F080002D494861D3
:101C40000846006940F0800008610846006940F4D9
:101C5000007008610846406940F480704861084699
:101C6000006940F0400008610846406940F4807017
:101C700048610846406940F400704861CB201E4925
:101C800008601C48406940F080001A4948610846D5
:101C9000006940F0800008610846006940F4007067
:101CA00008610846006940F48070086108460069D0
:101CB00040F0400008610846406940F40070486107
:101CC00039200D4908600B48406940F080000949FF
:101CD00048610846006940F08000086108460069D4
:101CE00040F4007008610846006940F480700861A3
:101CF000084603E0001001400C0C0140006940F070
:101D0000400008610846406940F4007048612C209A
:101D1000FE490860FE48406940F08000FC49486187
:101D20000846006940F0800008610846006940F4F8
:101D3000007008610846006940F480700861084638
:101D4000006940F0400008610846406940F40070B6
:101D500048610020ED490860ED48406940F080008E
:101D6000EB4948610846006940F080000861084678
:101D7000006940F4007008610846006940F4807012
:101D800008610846006940F0400008610846406963
:101D900040F4007048613420DC490860DC48406948
:101DA00040F08000DA4948610846006940F0800050
:101DB00008610846006940F400700861084600693F
:101DC00040F4807008610846006940F040000861F6
:101DD0000846406940F4007048610220CB49086021
:101DE000CB48406940F08000C94948610846006915
:101DF00040F0800008610846006940F40070086106
:101E00000846406940F4807048610846006940F027
:101E1000400008610846406940F480704861084607
:101E2000406940F400704861F720B8490860B8483C
:101E3000406940F08000B64948610846006940F0BA
:101E4000800008610846006940F400700861084697
:101E5000006940F4807008610846006940F0400065
:101E600008610846406940F4007048612020A74995
:101E70000860A748406940F08000A54948610846CD
:101E8000006940F0800008610846006940F4007075
:101E900008610846406940F480704861084600695E
:101EA00040F0400008610846406940F48070486195
:101EB0000846406940F400704861EA209349086090
:101EC0009348406940F080009149486108460069A4
:101ED00040F0800008610846006940F40070086125
:101EE0000846006940F4807008610846006940F0C7
:101EF000400008610846406940F4007048610020D5
:101F0000824908608248406940F080008049486109
:101F10000846006940F0800008610846006940F406
:101F2000007008610846006940F480700861084646
:101F3000006940F0400008610846406940F40070C4
:101F400048610020714908607148406940F0800094
:101F50006F4948610846006940F080000861084602
:101F6000006940F4007008610846406940F48070E0
:101F700048610846006940F0400008610846406931
:101F800040F4807048610846406940F40070486140
:101F9000C0205E4908605E48406940F080005C49AE
:101FA00048610846006940F0800008610846006901
:101FB00040F4007008610846006940F480700861D0
:101FC0000846006940F0400008610846406940F456
:101FD000007048611B204D4908604D48406940F041
:101FE00080004B4948610846006940F08000086164
:101FF0000846006940F4007008610846406940F4F2
:10200000807048610846006940F040000861084659
:10201000406940F4807048610846406940F40070AF
:102020004861C120394908603948406940F0800062
:10203000374948610846006940F080000861084659
:10204000006940F4007008610846006940F480703F
:1020500008610846006940F0400008610846406990
:1020600040F4007048610120284908602848406910
:1020700040F08000264948610846006940F0800031
:1020800008610846006940F400700861084640692C
:1020900040F4807048610846006940F040000861E3
:1020A0000846406940F4807048610846406940F441
:1020B00000704861C520154908601548406940F026
:1020C0008000134948610846006940F080000861BB
:1020D0000846006940F4007008610846006940F451
:1020E000807008610846006940F0400008610846B9
:1020F000406940F400704861302004490860044899
:10210000406940F080000249486103E00C0C014046
:10211000001001400846006940F080000861084650
:10212000006940F4007008610846006940F480705E
:1021300008610846006940F04000086108464069AF
:1021400040F4007048613020FE490860FE48406954
:1021500040F08000FC4948610846006940F080007A
:1021600008610846006940F400700861084640694B
:1021700040F4807048610846006940F04000086102
:102180000846406940F4807048610846406940F460
:1021900000704861C720EB490860EB48406940F097
:1021A0008000E94948610846006940F08000086104
:1021B0000846006940F4007008610846006940F470
:1021C000807008610846006940F0400008610846D8
:1021D000406940F400704861B720DA490860DA4885
:1021E000406940F08000D84948610846006940F0E5
:1021F000800008610846006940F4007008610846E4
:10220000406940F4807048610846006940F0400031
:1022100008610846406940F480704861084640699A
:1022200040F4007048613620C6490860C6484069DD
:1022300040F08000C44948610846006940F08000D1
:1022400008610846006940F40070086108460069AA
:1022500040F4807008610846006940F04000086161
:102260000846406940F4007048614820B54908605C
:10227000B548406940F08000B349486108460069AC
:1022800040F0800008610846006940F40070086171
:102290000846406940F4807048610846006940F093
:1022A000400008610846406940F480704861084673
:1022B000406940F4007048613A20A2490860A24891
:1022C000406940F08000A04948610846006940F03C
:1022D000800008610846006940F400700861084603
:1022E000006940F4807008610846006940F04000D1
:1022F00008610846406940F40070486155209149E2
:1023000008609148406940F080008F494861084664
:10231000006940F0800008610846006940F40070E0
:1023200008610846406940F48070486108460069C9
:1023300040F0400008610846406940F48070486100
:102340000846406940F400704861B1207D4908604A
:102350007D48406940F080007B494861084600693B
:1023600040F0800008610846006940F40070086190
:102370000846006940F4807008610846006940F032
:10238000400008610846406940F400704861002040
:102390006C4908606C48406940F080006A494861B7
:1023A0000846006940F0800008610846006940F472
:1023B000007008610846006940F4807008610846B2
:1023C000006940F0400008610846406940F4007030
:1023D00048611A205B4908605B48406940F0800012
:1023E000594948610846006940F080000861084684
:1023F000006940F4007008610846406940F480704C
:1024000048610846006940F040000861084640699C
:1024100040F4807048610846406940F400704861AB
:10242000B620484908604848406940F08000464965
:1024300048610846006940F080000861084600696C
:1024400040F4007008610846006940F4807008613B
:102450000846006940F0400008610846406940F4C1
:10246000007048610A20374908603748406940F0E9
:102470008000354948610846006940F080000861E5
:102480000846006940F4007008610846006940F49D
:10249000807008610846006940F040000861084605
:1024A000406940F400704861A2202649086026482F
:1024B000406940F08000244948610846006940F0C6
:1024C000800008610846006940F400700861084611
:1024D000406940F4807048610846006940F040005F
:1024E00008610846406940F48070486108464069C8
:1024F00040F400704861F2201249086012484069B7
:1025000040F08000104948610846006940F08000B2
:1025100008610846006940F40070086108460069D7
:1025200040F4807008610846006940F0400008618E
:102530000846406940F40070486100200149086085
:10254000014803E00C0C014000100140406940F0DC
:102550008000FE4948610846006940F0800008613B
:102560000846006940F4007008610846406940F47C
:10257000807048610846006940F0400008610846E4
:10258000406940F4807048610846406940F400703A
:1025900048612620EE490860EC48406940F0800020
:1025A000EA4948610846006940F080000861084631
:1025B000006940F4007008610846006940F48070CA
:1025C00008610846006940F040000861084640691B
:1025D00040F4007048610120DD490860DB48406933
:1025E00040F08000D94948610846006940F0800009
:1025F00008610846006940F40070086108464069B7
:1026000040F4807048610846006940F0400008616D
:102610000846406940F4807048610846406940F4CB
:1026200000704861E020CA490860C848406940F02D
:102630008000C64948610846006940F08000086192
:102640000846006940F4007008610846006940F4DB
:10265000807008610846006940F040000861084643
:10266000406940F4007048610F20B9490860B748DC
:10267000406940F08000B54948610846006940F073
:10268000800008610846006940F40070086108464F
:10269000006940F4807008610846006940F040001D
:1026A00008610846406940F4007048612A20A84942
:1026B0000860A648406940F08000A4494861084687
:1026C000006940F0800008610846006940F400702D
:1026D00008610846006940F4807008610846006996
:1026E00040F0400008610846406940F400704861CD
:1026F0002820974908609548406940F08000934938
:1027000048610846006940F0800008610846006999
:1027100040F4007008610846006940F48070086168
:102720000846006940F0400008610846406940F4EE
:10273000007048610820864908608448406940F07C
:102740008000824948610846006940F080000861C5
:102750000846006940F4007008610846006940F4CA
:10276000807008610846006940F040000861084632
:10277000406940F4007048610E2075490860734854
:10278000406940F08000714948610846006940F0A6
:10279000800008610846006940F40070086108463E
:1027A000006940F4807008610846006940F040000C
:1027B00008610846406940F4007048610820644997
:1027C00008606248406940F08000604948610846FE
:1027D000006940F0800008610846006940F400701C
:1027E00008610846006940F4807008610846006985
:1027F00040F0400008610846406940F400704861BC
:102800005420534908605148406940F080004F49C6
:1028100048610846006940F0800008610846006988
:1028200040F4007008610846006940F48070086157
:102830000846006940F0400008610846406940F4DD
:1028400000704861A920424908604048406940F052
:1028500080003E4948610846006940F080000861F8
:102860000846006940F4007008610846006940F4B9
:10287000807008610846006940F040000861084621
:10288000406940F4007048614320314908602F4896
:10289000406940F080002D4948610846006940F0D9
:1028A000800008610846006940F40070086108462D
:1028B000006940F4807008610846006940F04000FB
:1028C00008610846406940F4007048610A202049C8
:1028D00008601E48406940F080001C494861084675
:1028E000006940F0800008610846006940F400700B
:1028F00008610846006940F4807008610846006974
:1029000040F0400008610846406940F400704861AA
:102910000F200F4908600D48406940F080000B49C6
:1029200048610846006940F0800008610846006977
:1029300040F4007008610846006940F48070086146
:102940000846006940F04000086103E000100140C3
:102950000C0C01400846406940F4007048610020BA
:10296000FE490860FE48406940F08000FC4948612B
:102970000846006940F0800008610846006940F49C
:10298000007008610846006940F4807008610846DC
:10299000006940F0400008610846406940F400705A
:1029A00048610020ED490860ED48406940F0800032
:1029B000EB4948610846006940F08000086108461C
:1029C000006940F4007008610846006940F48070B6
:1029D00008610846006940F0400008610846406907
:1029E00040F4007048610020DC490860DC48406920
:1029F00040F08000DA4948610846006940F08000F4
:102A000008610846006940F40070086108460069E2
:102A100040F4807008610846006940F04000086199
:102A20000846406940F4007048610020CB490860C6
:102A3000CB48406940F08000C949486108460069B8
:102A400040F0800008610846006940F400700861A9
:102A50000846406940F4807048610846006940F0CB
:102A6000400008610846406940F4807048610846AB
:102A7000406940F400704861E120B8490860B848F6
:102A8000406940F08000B64948610846006940F05E
:102A9000800008610846006940F40070086108463B
:102AA000006940F4807008610846006940F0400009
:102AB00008610846406940F4007048610020A74959
:102AC0000860A748406940F08000A5494861084671
:102AD000006940F0800008610846006940F4007019
:102AE00008610846006940F4807008610846006982
:102AF00040F0400008610846406940F400704861B9
:102B00001520964908609648406940F08000944935
:102B100048610846006940F0800008610846006985
:102B200040F4007008610846006940F48070086154
:102B30000846006940F0400008610846406940F4DA
:102B4000007048611720854908608548406940F059
:102B50008000834948610846006940F080000861B0
:102B60000846006940F4007008610846006940F4B6
:102B7000807008610846006940F04000086108461E
:102B8000406940F400704861072074490860744847
:102B9000406940F08000724948610846006940F091
:102BA000800008610846006940F40070086108462A
:102BB000006940F4807008610846006940F04000F8
:102BC00008610846406940F400704861112063497B
:102BD00008606348406940F08000614948610846E8
:102BE000006940F0800008610846006940F4007008
:102BF00008610846006940F4807008610846006971
:102C000040F0400008610846406940F400704861A7
:102C10000620524908605248406940F080005049FF
:102C200048610846006940F0800008610846006974
:102C300040F4007008610846006940F48070086143
:102C40000846006940F0400008610846406940F4C9
:102C5000007048612B20414908604148406940F0BC
:102C600080003F4948610846006940F080000861E3
:102C70000846006940F4007008610846006940F4A5
:102C8000807008610846006940F04000086108460D
:102C9000406940F40070486156203049086030486F
:102CA000406940F080002E4948610846006940F0C4
:102CB000800008610846006940F400700861084619
:102CC000006940F4807008610846006940F04000E7
:102CD00008610846406940F4007048613C201F4983
:102CE00008601F48406940F080001D49486108465F
:102CF000006940F0800008610846006940F40070F7
:102D000008610846006940F480700861084600695F
:102D100040F0400008610846406940F40070486196
:102D200005200E4908600E48406940F080000C49BB
:102D300048610846006940F0800008610846006963
:102D400040F4007008610846006940F48070086132
:102D50000846006940F04000086103E00C0C0140A7
:102D6000001001400846406940F40070486110209E
:102D7000FE490860FE48406940F08000FC49486117
:102D80000846006940F0800008610846006940F488
:102D9000007008610846006940F4807008610846C8
:102DA000006940F0400008610846406940F4007046
:102DB00048610F20ED490860ED48406940F080000F
:102DC000EB4948610846006940F080000861084608
:102DD000006940F4007008610846006940F48070A2
:102DE00008610846006940F04000086108464069F3
:102DF00040F4007048613F20DC490860DC484069CD
:102E000040F08000DA4948610846006940F08000DF
:102E100008610846006940F40070086108460069CE
:102E200040F4807008610846006940F04000086185
:102E30000846406940F4007048613F20CB49086073
:102E4000CB48406940F08000C949486108460069A4
:102E500040F0800008610846006940F40070086195
:102E60000846006940F4807008610846006940F037
:102E7000400008610846406940F4007048610F2036
:102E8000BA490860BA48406940F08000B8494861D2
:102E90000846006940F0800008610846006940F477
:102EA000007008610846406940F480704861084637
:102EB000006940F0400008610846406940F48070B5
:102EC00048610846406940F4007048612B20A749DA
:102ED0000860A748406940F08000A549486108465D
:102EE000006940F0800008610846006940F4007005
:102EF00008610846006940F480700861084600696E
:102F000040F0400008610846406940F400704861A4
:102F10000020964908609648406940F08000944936
:102F200048610846006940F0800008610846006971
:102F300040F4007008610846006940F48070086140
:102F40000846006940F0400008610846406940F4C6
:102F5000007048610020854908608548406940F05C
:102F60008000834948610846006940F0800008619C
:102F70000846006940F4007008610846006940F4A2
:102F8000807008610846006940F04000086108460A
:102F9000406940F400704861012074490860744839
:102FA000406940F08000724948610846006940F07D
:102FB000800008610846006940F400700861084616
:102FC000006940F4807008610846006940F04000E4
:102FD00008610846406940F4007048613F20634939
:102FE00008606348406940F08000614948610846D4
:102FF000006940F0800008610846006940F40070F4
:1030000008610846406940F48070486108460069DC
:1030100040F0400008610846406940F48070486113
:103020000846406940F4007048612A204F49086012
:103030004F48406940F080004D49486108460069AA
:1030400040F0800008610846006940F400700861A3
:103050000846006940F4807008610846006940F045
:10306000400008610846406940F400704861002053
:103070003E4908603E48406940F080003C49486154
:103080000846006940F0800008610846006940F485
:10309000007008610846006940F4807008610846C5
:1030A000006940F0400008610846406940F4007043
:1030B000486100202D4908602D48406940F080009B
:1030C0002B4948610846006940F0800008610846C5
:1030D000006940F4007008610846006940F480709F
:1030E00008610846006940F04000086108464069F0
:1030F00040F40070486100201C4908601C48406989
:1031000040F080001A4948610846006940F080009C
:1031100008610846006940F40070086108460069CB
:1031200040F4807008610846006940F04000086182
:103130000846406940F400704861EF200B49086080
:103140000B48406940F08000094948610846006921
:1031500040F0800008610846006940F40070086192
:103160000846406940F48070486103E00C0C01405F
:10317000001001400846006940F040000861084620
:10318000406940F4807048610846406940F400702E
:1031900048611120214908602148406940F08000C1
:1031A0001F4948610846006940F0800008610846F0
:1031B000006940F4007008617820FDF7D3F91848E1
:1031C000406940F48070164948610846006940F043
:1031D000400008610846406940F480704861084634
:1031E000406940F40070486129200C4908600C488F
:1031F000406940F080000A4948610846006940F093
:10320000800008610846006940F4007008610120F0
:1032100004490860FEF79BFA10BD00000C0C014049
:1032200000100140A80122422DE9F04706460F4652
:103230009046002445460320A0EB48093CE07A1B59
:1032400091B2321990B2FDF7E2FC3A1B91B27219B9
:1032500090B2FDF7DCFC3A1991B2721990B2FDF709
:10326000D6FC7A1991B2321990B2FDF7D0FC7A19D6
:1032700091B2321B90B2FDF7CAFC3A1991B2721B9F
:1032800090B2FDF7C4FC7A1B91B2321B90B2FDF7ED
:10329000BEFC3A1B91B2721B90B2FDF7B8FC641CE5
:1032A000B9F1000F03DAA000801D814404E0601B27
:1032B00080000A3081446D1EAC42C0DDBDE8F0875D
:1032C0002DE9F0470746884692461E46A6F12000A3
:1032D000C6B2002424E000251EE004EB061060497D
:1032E00011F80090C5F1070049FA00F909F0010052
:1032F00038B108EB040291B27A1990B2FDF787FC5D
:1033000008E008EB040291B27A1990B2554A12888B
:10331000FDF7A6FD681CC5B2082DDEDB601CC4B23B
:10332000102CD8DBBDE8F0872DE9F04105460E46AC
:1033300017461C4609E014F8013B3A463146284638
:10334000FFF7BEFF05F1080085B220780028F2D112
:10335000BDE8F08110B5444C2080444C2180444CA1
:103360002280444C238010BD70B506460C4615469D
:10337000012D03D13C4800883D490880022D08D129
:10338000394800883A4908803A480088103039495D
:10339000088057E020780D2800D1641C20780A2886
:1033A0000AD13148008832490880324800881030FC
:1033B00030490880641C2CE0207809281BD1202388
:1033C00032462C4801882A480088FFF779FF2848B0
:1033D0000088083026490880202332462548018885
:1033E00023480088FFF76CFF2148008808302049F7
:1033F0000880641C0DE014F8013B32461D4801882A
:103400001B480088FFF75CFF1948008808301849FE
:1034100008801948008816490988884208DA124845
:10342000008813490880134800881030114908802B
:10343000114840880F490988884203DA0B48008800
:103440000C49088020780028A4D170BD0549088067
:1034500070470A49088070470949087070470000A2
:103460002A59000810000020140000201600002037
:10347000180000201A000020900000200E000020FC
:103480001200002003E04FF4C87000F0D6FCFAE709
:10349000FEB027E000231A4619461846FFF75AFFE8
:1034A00002226AA10020FFF75FFF01A801F037F9AF
:1034B000322000F0C2FC01A801F097F9322000F0A0
:1034C000BCFC022201A90020FFF74EFF322000F0D1
:1034D000B4FC02225DA10020FFF746FF40F2DC5061
:1034E00000F0ABFCD6E708E05E480068C0435E49E8
:1034F000C1F88801962000F0A0FCF5E7FEB024E0BA
:103500000020FDF7F1F80446002C1BD0012C17D148
:1035100056A001F043FD63A001F040FD01A801F0B9
:10352000FEF801A96BA001F039FD6CA001F036FD99
:1035300001A801F05AF901A966A001F02FFD00E0F1
:1035400000BF00BF142000F078FCD9E71CB56E481E
:10355000012100234A02CDE900106CA16E4800F061
:103560004EFA6E48032100234FF40072CDE900109B
:103570006BA16E4800F043FA6D48012100234A0216
:10358000CDE900106BA16E4800F039FA6D480421B6
:103590000023CA01CDE900106BA16E4800F02FFA9C
:1035A0001CBD0920FCF725FF4820FCF79BFF4FF4CA
:1035B000E1314820FDF719F8FEF7FBF80020FDF790
:1035C000ABFE4FF47840FFF744FF00231A4619463C
:1035D0001846FFF7BFFE00225FA11046FFF7C4FEAA
:1035E000002263A11046FFF7BFFEFDF761F800223D
:1035F00065A11046FFF7B8FEFDF796F8012267A116
:103600000020FFF7B1FE01F0ABFC012080F3108831
:1036100000BF002266A11046FFF7A6FEFFF796FF47
:10362000012269A10020FFF79FFE00226CA1104635
:10363000FFF79AFE4FF47A70FCF794FF0020FDF735
:103640006BFE00F04DFE00BFFEE700002D2D2D2D7E
:103650002D2D2D2D2D2D2D2D2D2D2D2D2D2D2D2D9A
:103660002D00000088812242008022423D3D3D3DE8
:103670003D3D3D3D3D3D3D3D3D3D3D3D3D3D3D3D7A
:103680003D3D3D3D3D3D3D3D3D3D3D3D3D3D3D3D6A
:103690003D3D3D3D3D3D3D3D3D3D3D3D3D3D3D3D5A
:1036A0003D0D0A00C8CECEF1C3FB2020202020C84B
:1036B000CECEF1D7B4CCAC2020D3C5CFC8BCB62079
:1036C0002020CAA3D3E0D5BB20C8CECEF1D0F2BA19
:1036D000C50D0A0025730D0A000000000D0AC8CEB2
:1036E000CEF1C3FB2020202020202020D4CBD0D01E
:1036F000BCC6CAFD202020202020202020CAB9D30B
:10370000C3C2CA0D0A0000001C0000207654617379
:103710006B55736572494600FD3400082000002097
:10372000765461736B4C454400000000E734000898
:1037300024000020765461736B4D736750726F00E4
:103740009134000828000020765461736B53746133
:1037500072740000853400085B204F4B205D0953D4
:10376000797374656D20496E69742E2E2E0A0000DF
:103770005B204F4B205D0955736172743120496E97
:1037800069742E2E2E0A00005B576169745D094B27
:10379000657920496E69742E2E2E00005B204F4BF8
:1037A000205D094C454420496E69742E2E2E0A0076
:1037B0005B576169745D095461736B204372656185
:1037C00074652E2E2E0000005B204F4B205D0954A7
:1037D00061736B204372656174652E2E2E0A0000A2
:1037E0000A526561647920746F2073746172742069
:1037F0004F532E2E2E0A000000F1080141604FF0B9
:10380000FF31816000F10801C160016100210160A8
:10381000704700210161704742684A6093688B607D
:10382000936859609160086103685B1C036070478E
:1038300010B502460B685C1C0CB9106907E002F178
:10384000080000E04068446824689C42FAD9446853
:103850004C604C68A160886041600A611468641C17
:10386000146010BD01460A69D1E901309860D1E9C0
:10387000010358605068884201D188685060002078
:1038800008611068401E10601068704710B5002471
:1038900007E004EB8401FE4A02EB8100FFF7ACFF76
:1038A000641C052CF5D3FB48FFF7A6FFFA48FFF789
:1038B000A3FFFA48FFF7A0FFF948FFF79DFFF9487B
:1038C000FFF79AFFF348F8490860F348F7490860A2
:1038D00010BD10B5044601F005FBF5480068401C1A
:1038E000F3490860F348006840B9F24804600846AC
:1038F000006801280DD1FFF7C9FF0AE0EE48006813
:1039000038B9EC480068C06AE16A884201D8E948E1
:103910000460EA480068401CE849086008460068FE
:10392000606494F82C1001208840E5490968084338
:10393000E3490860E16A01EB8101D54A02EB8100AD
:10394000211DFFF769FF01F0DCFADB48006868B170
:10395000D8480068C06AE16A884207D24FF08050B8
:10396000D8490860BFF34F8FBFF36F8F10BD2DE9AB
:10397000F05F81460E4617469A46DDF828800C9C7B
:10398000B900A522206B01F006FC781E216B01EB2B
:10399000800B2BF0070B002507E0715D04F134006C
:1039A0004155705D00B902E06D1C102DF5D300BFCC
:1039B000002143200155B8F1050F01D34FF0040851
:1039C000C4F82C80201DFFF724FF04F11800FFF736
:1039D00020FF2461C8F10500A06164620020E0645A
:1039E000206584F8540052464946584601F04BFA87
:1039F00020600B9808B10B980460BDE8F09F2DE99A
:103A0000FF4F85B0804689461746DDE912ABB80006
:103A100001F09DF9064656B1582001F098F9044688
:103A20000CB1266304E0304601F0EFF900E0002419
:103A30007CB10020CDE900ABCDE902403A464946D1
:103A40004046089BFFF793FF2046FFF742FF012502
:103A500001E04FF0FF35284609B0BDE8F08F9249EC
:103A60000968096809B9012100E0002121B14FF07E
:103A7000FF31954A116006E08B490968C968C8683A
:103A8000914A41681160704710B50446206B01F0FF
:103A9000BCF9204601F0B9F910BD70B5054601F03A
:103AA00021FA15B98348006800E028460446201D25
:103AB000FFF7D8FE78B9E06A00EB8000744951F84E
:103AC000200040B994F82C10012088407C490968F6
:103AD00081437B480160A06A18B104F11800FFF728
:103AE000C1FE76480068401C74490860714800684F
:103AF000844209D1211D6A48FFF78EFE7348006891
:103B0000401C7249086009E069480068401E684925
:103B100008602046FFF7B8FFFFF7A1FF01F0F1F9B9
:103B20006548006858B163480068844207D14FF087
:103B3000805064490860BFF34F8FBFF36F8F70BD33
:103B40002DE9F041002762480068002863D16148F0
:103B50000068451C5F4805608DB95348D0F8008067
:103B600052480068504908605048C0F800805A48E0
:103B70000068401C58490860FFF771FF00BF5248B9
:103B8000006885423BD300BF47480068006808B919
:103B9000012000E0002020B14FF0FF304A490860CA
:103BA0002CE041480068C068C4686668B54202D22B
:103BB0004548066022E0201DFFF754FEA06A18B1B8
:103BC00004F11800FFF74EFE94F82C1001208840F5
:103BD0003B49096808433A490860E16A01EB810101
:103BE0002B4A02EB8100211DFFF716FE3149E06AE6
:103BF0000968C96A8842C7D30127C5E700BF2D48B5
:103C00000068C06A00EB8000214951F820000128BB
:103C100000D9012704E031480068401C2F490860A2
:103C20002F48006800B101273846BDE8F08170B523
:103C30000024002601F056F925480068401E24495A
:103C400008600846006800287AD1194800680028F2
:103C500076D04FE01148C068C46804F11800FFF73F
:103C600001FE201DFFF7FEFD94F82C100120884076
:103C700013490968084312490860E16A01EB8101B0
:103C8000034A02EB8100211DFFF7C6FD094929E027
:103C9000A000002004010020180100202C010020B9
:103CA000400100205401002030000020340000209A
:103CB0003C0000202C00002048000020580000207C
:103CC0004400002004ED00E05C00002038000020EB
:103CD0006400002040000020540000204C00002020
:103CE00050000020E06A0968C96A884202D30120B6
:103CF000FE490860FE48006808B9012000E0002085
:103D00000028A7D00CB1FFF7AAFEFA48056865B1F4
:103D100000BFFFF715FF10B10120F44908606D1EC8
:103D2000002DF6D10020F3490860F048006838B152
:103D300001263007F0490860BFF34F8FBFF36F8F44
:103D400001F0DFF8304670BD2DE9F04105460E4622
:103D5000EA480768EA480068001DFFF783FD50B98C
:103D6000E748006890F82C1001208840E549096870
:103D70008143E4480160681C38B936B1E048016805
:103D8000091DE148FFF748FD1AE07C19DC4800688E
:103D90004460BC4207D2DA480168091DDB4800686C
:103DA000FFF746FD0CE0D6480168091DD8480068B9
:103DB000FFF73EFDD7480068844201D2D548046031
:103DC000BDE8F081D4480068401CD34908607047C2
:103DD0002DE9F047044688464FF00009FFF7F2FF4F
:103DE000C6480668206800EB08052068B04207D97D
:103DF0002068A8420BD9B54209D94FF0010906E065
:103E00002068A84201D8B54201D94FF001092560C8
:103E1000B9F1000F03D0A81B0021FFF795FFFFF7B2
:103E200006FF07463FB94FF08050B3490860BFF323
:103E30004F8FBFF36F8FBDE8F08770B50446002544
:103E400044B1FFF7BFFF00212046FFF77DFFFFF7DA
:103E5000EEFE05463DB94FF08050A7490860BFF31C
:103E60004F8FBFF36F8F70BD2DE9F0410646374687
:103E7000A3480068874201D100241EE001F032F817
:103E80007D6901F03EF8A2480068854203D09F4852
:103E90000068854201D102240FE09B48854205D18C
:103EA000B86A08B9032408E0022406E09B4885426A
:103EB00000D00DB9042400E001242046BDE8F081C3
:103EC00070B5044601F00EF814B98D48006800E0A2
:103ED00020460646F56A01F014F8284670BD70B514
:103EE000024600BFBF25EFF3118485F31188BFF3AD
:103EF0004F8FBFF36F8F00BF214612B9804C2468EB
:103F000000E014462346D86A00BF81F3118800BF41
:103F100070BD2DE9F04780460D464FF00009052D94
:103F200000D3042500F0DEFFB8F1000F02D1744881
:103F3000006800E040460446E66AAE4251D0B54211
:103F40000BD96F48006884420DD06D480068C06A84
:103F5000A84208D84FF0010905E06948006884428A
:103F600001D14FF00109E76AE562A06900F0004065
:103F700010B9C5F10500A06107EB8701684A02EBA3
:103F800081016069884201D1012000E00020E0B198
:103F9000201DFFF767FC30B90120B8405949096876
:103FA00081435848016094F82C10012088405549FD
:103FB0000968084353490860E16A01EB8101584AE6
:103FC00002EB8100211DFFF727FCB9F1000F07D09C
:103FD0004FF0805048490860BFF34F8FBFF36F8F99
:103FE00000BF00F08EFFBDE8F0874B48006818B1B5
:103FF00001203E49086037E000203C4908604948FC
:1040000000684949086008460068484909688842CC
:104010000BD93B49096801F14C00C96C424A12684E
:10402000424B1B68D21A114401603F4800683F4967
:10403000086034480068B0FA80F0C0F11F0101EB5D
:104040008102374B03EB820042685268426000F104
:1040500008024368934202D1426852684260426853
:10406000D268274B1A6000BF704770B5054600F054
:1040700039FF15B92248006800E028460446201D93
:10408000FFF7F0FB78B9E06A00EB8000244951F8B3
:10409000200040B994F82C10012088401949096883
:1040A000814318480160A06A18B104F11800FFF7B5
:1040B000D9FB211D1448FFF7AFFB94F854000128E9
:1040C00002D1002084F8540000F01BFF184800685B
:1040D00028B100F007FFFFF7C2FC00F012FF08480C
:1040E000006884423CD11248006823E05000002060
:1040F0002C0100204C00002004ED00E040000020D6
:104100002C00002044000020540100203400002036
:10411000300000205C0000206400002040010020EE
:10412000A00000208C0000206C000020680000200F
:104130004800002040B14FF08050FB490860BFF3B9
:104140004F8FBFF36F8F0BE0F8480068F84909689C
:10415000884203D10020F749086001E0FFF745FFDE
:1041600070BD10B5014600200A46F04C5369A342C9
:1041700001D1012300E0002373B1EF4C936AA34205
:1041800001D1012300E0002333B9936A0BB9012365
:1041900000E0002303B1012010BD70B505462C4698
:1041A00074B3E448006884422AD000F09BFE2046A5
:1041B000FFF7D7FF10B3201DFFF754FB94F82C1026
:1041C00001208840DD4909680843DC490860E16A4C
:1041D00001EB8101DA4A02EB8100211DFFF71CFB94
:1041E000D449E06A0968C96A884207D34FF0805011
:1041F000CD490860BFF34F8FBFF36F8F00F081FE92
:1042000070BD2DE9F04106460027344600BFBF21AE
:10421000EFF3118081F31188BFF34F8FBFF36F8FDE
:1042200000BF05462046FFF79CFF20B3C548006845
:10423000E0B9C049E06A0968C96A884200D3012729
:10424000201DFFF70FFB94F82C1001208840BB497C
:1042500009680843B9490860E16A01EB8101B84A7D
:1042600002EB8100211DFFF7D7FA04E004F11801E9
:10427000B148FFF7D1FA00BF85F3118800BF384677
:10428000BDE8F08110B516E000F02CFEAE48C06825
:10429000C468201DFFF7E6FAA5480068401EA4493F
:1042A0000860AA480068401EA849086000F029FE7E
:1042B0002046FFF7E9FBA54800680028E4D110BDBF
:1042C00000BFFFF7DFFF9E4800680128F9D94FF0D3
:1042D000805095490860BFF34F8FBFF36F8FF0E7B1
:1042E0001CB59B4800210B468022CDE9001099A106
:1042F0009A48FFF784FB0446012C16D100BFBF206B
:1043000080F31188BFF34F8FBFF36F8F00BF4FF063
:10431000FF309349086001209249086000209249CB
:1043200008609249086000F0C7FD1CBD10B500BFD1
:10433000BF2080F31188BFF34F8FBFF36F8F00BF93
:1043400000208849086000F0CCFD10BD864908684F
:1043500070470021844A10687047754800687047AC
:10436000014611B97348006800E00846024602F1B0
:10437000340070470246002101E0521C491C1078AD
:10438000A528FAD0890888B270472DE9F041074680
:104390000C4690461E4617B96648006800E038464D
:1043A0000546256005F134006060E86A2061286BED
:1043B000E061686CA06000206061E86CA061052E7F
:1043C00012D05C480068854202D1002020730FE0C3
:1043D0002673032E0CD1FFF7F5FCA86A08B1022062
:1043E0002073FFF724FC03E02846FFF73DFD207310
:1043F000B8F1000F04D0286BFFF7BCFF208401E068
:1044000000202084BDE8F0812DE9F04707460C46E6
:1044100090460026206848B32046416849684160BC
:1044200000F1080142688A4202D14168496841604E
:104430004168D1F80C9000BF20464168496841604E
:1044400000F1080142688A4202D14168496841602E
:104450004168CD6806EBC60007EB800143460122A8
:104460002846FFF792FF761C4D45E5D13046BDE862
:10447000F0872DE9F04105468846164600240527B9
:10448000FFF7A0FC2A48006880453AD300BF7F1E92
:1044900007EB87022A4B03EB820104EBC40205EB16
:1044A00082000122FFF7B0FF0444002FEFD104EB9C
:1044B000C40105EB810002222D490968FFF7A4FF22
:1044C000044404EBC40105EB810002222949096878
:1044D000FFF79AFF044404EBC40105EB81000422BA
:1044E0001949FFF791FF044404EBC40105EB810077
:1044F00003220E49FFF788FF044416B11B480068E9
:104500003060FFF794FB2046BDE8F08170B50546AA
:104510000C460848016818312846FFF789F901213F
:104520002046FFF711FC70BD04ED00E054010020AF
:104530003C0000202C0000202C0100204400002022
:10454000A00000206400002040010020380000206E
:104550006000002049444C4500000000C1420008B2
:104560005C00002048000020400000208C0000205B
:10457000300000203400002070B506460C46154679
:1045800044F00040FE4909688861FD48016818311F
:104590003046FFF741F901212846FFF7D5FB70BDF2
:1045A00070B50646F068C46804F11800FFF75AF9C0
:1045B000F4480068A8B9201DFFF754F994F82C10AE
:1045C00001208840F04909680843EF490860E16A22
:1045D00001EB8101ED4A02EB8100211DFFF71CF97F
:1045E00004E004F11801EA48FFF716F9E449E06A2B
:1045F0000968C96A884204D901250120E549086093
:1046000000E00025284670BD70B505460E4646F010
:1046100000402860EC682846FFF724F9201DFFF7CA
:1046200021F994F82C1001208840D74909680843E3
:10463000D5490860E16A01EB8101D44A02EB8100AF
:10464000211DFFF7E9F8CE49E06A0968C96A884286
:1046500002D90120CF49086070BD10B5044600F0B2
:1046600041FCCD4800682060CC480068606000F0E4
:1046700048FC10BDC84909680160C8490968416023
:10468000704770B506460C4600F02CFCC348026823
:104690007068131A2068401C08B9002517E0BE494D
:1046A00030680968884204D07068904201D80125BA
:1046B0000DE02068984207D92068C01A2060304673
:1046C000FFF7D8FF002502E000202060012500F060
:1046D00018FC284670BD0120AE49086070470146AD
:1046E00011B10A46906C00E00020704708B1024604
:1046F0009164704770B505460E463146284600F075
:1047000007FD284600F028FD044602E02020285539
:10471000641C0F2CFAD300202855281970BD7FB5D2
:104720000546002028709E48006803909C4909684F
:1047300001EBC101880000F00AFB0446002C53D0B5
:10474000002220460399FFF794FE03900020029078
:1047500043E0029800EBC00004EB8000007B0528DA
:104760000ED2DFE800F0030507090B00582609E028
:10477000522607E0422605E0532603E0442601E0E6
:10478000002600BF00BF029800EBC00004EB8000D1
:1047900041682846FFF7AEFF0546029800EBC000CF
:1047A00004EB80008068029901EBC10104EB8101F8
:1047B000098CCDE90010029800EBC00004EB8000EA
:1047C000324678A10369284600F0F4FB284600F041
:1047D000C3FC05440298401C0290DDE902018842B6
:1047E000B7D3204600F011FB7FBDFEB50546002083
:1047F00028706B48006802906949096801EBC101A3
:10480000880000F0A4FA0446002C48D06A462046EE
:104810000299FFF72EFE029064210098B0FBF1F0A0
:1048200000900098002837D00020019030E00198D7
:1048300000EBC00004EB800080690099B0FBF1F64A
:10484000019800EBC00004EB800041682846FFF7A8
:1048500051FF05465EB1019800EBC00004EB8000FB
:10486000334654A18269284600F0A4FB09E0019870
:1048700000EBC00004EB800051A18269284600F0E3
:1048800099FB284600F068FC05440198401C019003
:10489000DDE901018842CAD3204600F0B6FAFEBD28
:1048A00037490968886936490968C96AC1F105014B
:1048B000334A12689161704770B506460D4600F0A4
:1048C00011FB2F480068006D88B901202C49096848
:1048D00081F854005DB101212846FFF735FA4FF009
:1048E00080503A490860BFF34F8FBFF36F8F00F0DD
:1048F00008FB00F0F7FA22480068046D4CB126B1BD
:1049000000201F490968086503E0601E1C4909680A
:10491000086500201A49096881F8540000F0F1FA8E
:10492000204670BD2DE9F0410746884614461D46D5
:1049300000F0D8FA1248006890F85400022818D005
:104940000F49096801F15000096DB9430160012068
:104950000B49096881F854005DB101212846FFF731
:10496000F3F94FF0805019490860BFF34F8FBFF340
:104970006F8F00F0C6FA00F0B5FA4CB3004828E09B
:104980002C0000206400002044000020A000002033
:104990002C01002050000020540000204000002086
:1049A0003C00002009256309257509257509257531
:1049B0000D0A00000925750909257525250D0A0030
:1049C00009257509093C3125250D0A0004ED00E093
:1049D00002E00068006D2060A548006890F854006F
:1049E000022801D0002608E0A149096801F1500021
:1049F000096D21EA08010160012600209C4909682F
:104A000081F8540000F07DFA3046BDE8F0812DE9D0
:104A1000F04781460D4616461F464FF0010A4C46A8
:104A200000F060FA0FB1206D386094F854800220D5
:104A300084F85400052E17D2DFE806F01503070BA3
:104A40000D00206D284320650EE0206D401C206580
:104A50000AE0256508E0B8F1020F01D0256501E004
:104A60004FF0000A00E000BF00BFB8F1010F22D1F3
:104A7000201DFEF7F7FE94F82C10012088407D4998
:104A8000096808437B490860E16A01EB81017A4AC1
:104A900002EB8100211DFEF7BFFE7549E06A09683F
:104AA000C96A884207D94FF0805074490860BFF343
:104AB0004F8FBFF36F8F00F024FA5046BDE8F087A8
:104AC0002DE9F84F82460D4616461F46DDF828B000
:104AD00001200090544600BFBF21EFF3118081F305
:104AE0001188BFF34F8FBFF36F8F00BF81460FB1A7
:104AF000206D386094F85480022084F85400052E0C
:104B000017D2DFE806F01503070B0D00206D2843D0
:104B100020650EE0206D401C20650AE0256508E058
:104B2000B8F1020F01D0256501E00020009000E0FF
:104B300000BF00BFB8F1010F2DD151480068A8B9DE
:104B4000201DFEF78FFE94F82C1001208840494963
:104B50000968084347490860E16A01EB8101464A58
:104B600002EB8100211DFEF757FE04E004F118015D
:104B70004448FEF751FE3E49E06A0968C96A884226
:104B800009D9BBF1000F03D00120CBF8000002E0EF
:104B900001203D49086000BF89F3118800BF0098DB
:104BA000BDE8F88F2DE9F04105460E462C4600BFC2
:104BB000BF21EFF3118081F31188BFF34F8FBFF353
:104BC0006F8F00BF074694F85480022084F8540089
:104BD000206D401C2065B8F1010F2AD128480068DB
:104BE000A8B9201DFEF73EFE94F82C100120884045
:104BF0002049096808431F490860E16A01EB810107
:104C00001D4A02EB8100211DFEF706FE04E004F1BF
:104C100018011C48FEF700FE1549E06A0968C96AD8
:104C2000884206D916B10120306002E00120164901
:104C3000086000BF87F3118800BFBDE8F08170B540
:104C4000054615B90A48006800E02846064600F007
:104C500049F996F85400022804D1002086F854003F
:104C6000012400E0002400F04CF9204670BD000053
:104C70002C00002044000020A000002004ED00E0F3
:104C8000640000202C0100205000002010B50146D7
:104C9000714800E0006803688B42FBD3024643681A
:104CA00013448B4204D143684C682344436001465B
:104CB0000A464B6813440468A34211D1674C036849
:104CC0002468A34208D04B680468646823444B609E
:104CD00003681B680B6005E0604B1B680B6001E01C
:104CE00003680B60884200D0016010BD30B54FF4FE
:104CF00088435B4800F007042CB1C01D20F007007A
:104D0000574C041B1B1B0246534C22600024524D7F
:104D10006C60D018083820F00700504C2060002448
:104D20004E4D2D686C604D4D2D682C601146441A17
:104D30004C604A4C24680C604A4D4C682C604A4DCB
:104D40004C682C604FF00044484D2C6030BD2DE97C
:104D5000F04105464FF00008FFF734F83F4800687F
:104D600008B9FFF7C3FF414800682840002847D131
:104D700045B1083505F0070020B105F00700C0F186
:104D800008000544002D3BD037480068854237D8DD
:104D9000314E3046046801E0264624686068A84227
:104DA00002D220680028F7D12C480068844227D01E
:104DB000306800F10808206830606068401B1028E7
:104DC00007D967196068401B786065603846FFF74F
:104DD0005DFF254960680968081A2349086008468C
:104DE000006820490968884203D21F4800681D49AD
:104DF00008601E4960680968084360600020206000
:104E0000FEF715FF4046BDE8F08170B50646354611
:104E1000D6B1083D2C46154960680968084098B12C
:104E2000206888B911496068096888436060FEF7A6
:104E3000C9FF0D496068096808440B4908602046AD
:104E4000FFF724FFFEF7F3FE70BD074800687047C8
:104E50000448006870477047700000207800002008
:104E600068010020800000207C00002084000020D9
:104E700000BFBF2080F31188BFF34F8FBFF36F8F48
:104E800000BF00BFFEE7001F4FF080730360001FEC
:104E900021F001030360001F2D4B036014380260F2
:104EA0002038704700204FF0E021086188612948D0
:104EB000486107200861704710B52748006840F432
:104EC0007F00254908600846006840F07F40086080
:104ED000FFF7E8FF002021490860FBF793F9002065
:104EE00010BD704700BFBF2080F31188BFF34F8F04
:104EF000BFF36F8F00BF19480068401C1749086056
:104F0000704716480068401E14490860084600684B
:104F100020B9002080F3118800BF00BF704710B592
:104F200000BFBF2080F31188BFF34F8FBFF36F8F97
:104F300000BFFEF705FE20B14FF0805006491C3936
:104F4000086000BF002080F3118800BF10BD000082
:104F5000714E00083F19010020ED00E0880000209C
:104F600010B509214720FBF717FC10BD0848008841
:104F700000F0010050B107480068401C0549086076
:104F80000348008820F001000149088070470000B4
:104F9000100400408C000020704700000FB404494A
:104FA00010B503AA029800F08FF910BC5DF814FB4D
:104FB000040000200FB41CB5074B06AA7B446946C9
:104FC0000090059800F051F90020694600F060F962
:104FD0001CBC5DF814FB0000D10200002DE9F0417B
:104FE0000E460446002020622046E168884730B320
:104FF000252805D0D4E901219047206A401CF2E71A
:10500000E168204600278847050018D0A5F1410037
:10501000192802D820354FF4006732462946204629
:105020002760FBF7BFF840B1012804D0F61D26F039
:1050300007060836D8E7361DD6E72846DAE7206A9D
:10504000BDE8F08170B50C460546012A05D02878E8
:10505000800600D5EA69002302E0012305E05B1C1D
:10506000934202D2E05C0028F9D1A869E618C01A80
:10507000A861286A184428622846AFF3008004E03B
:10508000D5E9012114F8010B9047B442F8D3284622
:10509000AFF3008070BD00002DE9F041064600240A
:1050A00010687529314616A510D0AFF3008000288E
:1050B00002DA404213A507E031688A0701D512A53C
:1050C00002E0490704D511A5012401E0AFF30080F7
:1050D00000210A2206F1240709E0B0FBF2FCB0FB34
:1050E000F2F302FB1C00303078541846491C0028AB
:1050F000F3D123462A463046BDE8F04100F057B8C8
:10510000000000002D0000002B0000002000000027
:1051100040EA0103024630B59B0710D14FF001343D
:1051200000E008C208C91D1B9D4315EAC41FF8D042
:1051300013F0FF0102F8011B0DD01B0AF8E711F86C
:10514000013B002B02F8013B05D011F8013B002B7D
:1051500002F8013BF3D130BD10B5431C02E010F85A
:10516000011B71B18107FAD14FF0013202C88C1ACC
:105170008C4314EAC211F9D0C01A0A0603D0C01E2B
:1051800010BDC01A10BD0A0401D0801E10BD090256
:10519000FCD0401E10BD02F0FF0343EA032242EAA6
:1051A000024200F0A5B870477047704770472DE97C
:1051B000F0470D4699469246044600F124080168DE
:1051C000880604D5E06921F01001216000E001208B
:1051D000A84201DD471B00E00027A1697A1902EB14
:1051E0000900081AA0612078C00602D42046AFF357
:1051F0000080002608E0D4E901211AF80600904753
:10520000206A401C761C20624E45F4DB2078C006E4
:105210000AD52046AFF3008006E0D4E90121302012
:105220009047206A401C2062381EA7F10107F4DC79
:1052300007E0D4E9012118F805009047206A401CD6
:105240002062281EA5F10105F3DC2046AFF30080A3
:105250002078000602D50220BDE8F0870120FBE798
:1052600001694A1C02610878704700B58FB0CDE92A
:1052700001310021059105497944CDE9031011461A
:105280006846FFF7ABFE0FB000BD0000E5FFFFFF73
:105290000A6802F8010B0A60704710B5436913B140
:1052A000AFF3008001E0FFF7CDFE012010BD1278C2
:1052B00000F124010A7000224A700122EDE7116812
:1052C0004FF0FF32E9E70000074B70B50D467B4415
:1052D000FFF7CBFF0446284600F02AF810B14FF044
:1052E000FF3070BD204670BDDFB2FFFF4FF00002FF
:1052F0000429C0F0128010F0030C00F01F80CCF1E4
:10530000040CBCF1020F18BF00F8012BA8BF20F855
:10531000022BA1EB0C0100F011B85FEAC17C24BFA5
:1053200000F8012B00F8012B48BF00F8012B704753
:10533000007B00F0800070474FF0000200B513467C
:1053400094469646203922BFA0E80C50A0E80C50A5
:10535000B1F12001BFF4F7AF090728BFA0E80C5056
:1053600048BF0CC05DF804EB890028BF40F8042B4F
:1053700008BF704748BF20F8022B11F0804F18BFBC
:1053800000F8012B7047754600F028F8AE4605007E
:105390006946534620F00700854618B020B5FAF755
:1053A00077FFBDE820404FF000064FF000074FF0B8
:1053B00000084FF0000B21F00701AC46ACE8C00933
:1053C000ACE8C009ACE8C009ACE8C0098D4670473C
:1053D0000446AFF300802046FAF7FCFE0048704711
:1053E0006845002090EA010F48BF81F0004100F1BC
:1053F0002E82421A3CBF801A89184FEAD0524FF0D1
:105400007F4C1CEA410FA2EBD15318BF9CEA026FFC
:1054100000F03B804FF0004C4CEA00204CEA0121A8
:1054200021FA03FC10EB0C0C1ED202F1FF325FEAF2
:105430001C2040EBC25038BF70471CF07F0F4FEA72
:10544000400C18BFBCF17F4F38BF7047C3F1200339
:10545000994008BF20F00100BCF17F4F38BF704772
:10546000A0F1C04000F0DDB94FEA3C00000A40EB7B
:10547000C25028BF1CF0FF0F4FEA400CE6D018BF07
:10548000BCF17F4F38BF7047EAE79CEA026F05D056
:1054900010EA5C0F08BF00F00040704710B500F044
:1054A0007AF900BF64FBBE3E4FF47F0C1CEAD012B9
:1054B0001EBF1CEAD11392EA0C0F93EA0C0F00F006
:1054C000858090EA010F48BF42F4807240F4000CDE
:1054D00041F400002CF07F4120F07F4000B5814274
:1054E000A2EB03020FF2081CACEB504EC0F100001F
:1054F0009EF800E04FEA4E0E00FB0EFC38BF49005C
:105500004FEA2C1C02F5FA020CFB0EF34FEACE1EFA
:105510004FEA112C4FEAC1210EEB635E42EB2242AF
:105520000EFB0CFC4FEA1C5300FB03114FEA112C3D
:105530004FEA01310EFB0CFC4FEADC4C00FB0C1176
:10554000C14228BF09184CEB03335DF804EB10EBA4
:10555000410143EBC250B2F57C0F38BF704729D5EB
:1055600012F0F00F1CBF00F1C04000F00040704787
:10557000008182838485868788898B8C8D8E8F912C
:105580009293959697999A9C9D9FA0A2A3A5A7A850
:10559000AAACAEB0B2B3B5B7B9BCBEC0C2C5C7C97C
:1055A000CCCED1D4D7D9DCDFE2E6E9ECF0F3F7FAE0
:1055B000FE0000004FEA400C0CF1807CBCF17E4FF5
:1055C00028BF7047B0F1C04000F02BB990EA010F3E
:1055D0000CEAD11348BF42F48072624538BF63457C
:1055E00007D213F47F0F16D080EA010000F00040CC
:1055F000704710B500F0CFF8097EFC3E00F005B80A
:1056000080EA010000F00040704780EA010000F0ED
:10561000004000F006B912F47F0F04BF0248704743
:1056200080EA010000F0FDB80000C07FC10DD1F19B
:105630009E0206DB4FEA002343F0004323FA02F008
:105640007047004207D54FEA4001B1F1FE4F02D248
:105650004FF00000704710B500F09DF8499224808B
:10566000002070476FEA200070470000B0FA80F316
:1056700010FA03F2C3F19D030AD0D90501EB122001
:10568000530638BF704700F1010008BF20F0010049
:10569000704700004FF47F0C1CEAD0121EBF1CEABA
:1056A000D11392EA0C0F93EA0C0F00F0478090EAB6
:1056B000010F48BF42F480724FF0004C4CEA0020CA
:1056C0004CEA012102EB0302A0FB0113A2F5000248
:1056D000002918BF43F001035B0028BF4FEA3303E2
:1056E00042EB22425FEA132C4CEBC2502EBFBCEBC4
:1056F000436FB2F57C0F70474FEA036CBCF1004F6B
:1057000008BF20F00100B2F57C0F38BF70470BD501
:1057100082F0FF0212F5803FC8BF704700F1C04021
:10572000D8BF00F00040704700F5000C5FEA4C0C59
:1057300048BF7047B0F1C04000F073B890EA010F65
:105740000CEAD11348BF42F48072624538BF63450A
:1057500004D280EA010000F00040704710B500F06C
:105760001AF800BF8900013E00F007B800F009B840
:105770005FEA410C5FEA1C6C08D080EA010000F08F
:1057800050B85FEA400C5FEA1C6CF6D14FF0004065
:10579000A0F5800070470EF1020E2EF0030E5EF8A9
:1057A000044B244204D44FEA4102B2F17F4F11D896
:1057B0004FEA4003B3F17F4F0CD80ED14FEAD07CB3
:1057C000B2F17F4F0CEB4C0C0CF1020C08BF4CEB10
:1057D000D17C04E04FF0080C01E04FEAD17C0CEBE7
:1057E0004C0324FA03F404F00704B4F1040C06D2C9
:1057F0000EEB840CBDE810404CF0010C6047DFE874
:105800000CF0070802024FF00040A0F5800010BD28
:105810000846420018BFD2F1807288BF00F00040F5
:1058200010BDFF2141EAD050C005704780F0004014
:1058300090EA010F7FF5DDAD81F0004100F007B87F
:1058400090EA010F48BF81F000413FF5D2AD421A06
:1058500004D882F00042A0EB020011444FEAD0527B
:105860004FF07F4C1CEA410FA2EBD15318BF9CEACA
:10587000026F4AD04FF0004C4CEA00204CEA012164
:1058800021FA03FCB0EB0C0C0FD412F0FE0F36D053
:105890005FEA4C001DD5001240EBC25038BF704784
:1058A0001CF03F0F18BF70470BE0A2F101025FEA46
:1058B0001C2040EBC25038BF70471CF07F0F18BF50
:1058C0007047C3F12003994014BF401E20F001002F
:1058D000704780084FEA122308BF7047B0FA80FC77
:1058E000A2EB0C02CCF1280C60FA0CF093EA122F18
:1058F00004BF00EBC25070474FEAC3707047130AF1
:105900005FEADC1008BF7047F6E79CEA026F04D03C
:1059100010EA5C0F08BF0020704710B5FFF73BFF8F
:1059200040DFF63E81F000407047000000000000BC
:105930000000000000000000000000000010101037
:105940001010101000001818000000123624480033
:1059500000000000000000000000000000242424DB
:10596000FE484848FE48484800000000103854549B
:105970005030181414545438101000000044A4A8D7
:10598000A8A8541A2A2A2A440000000000304848D7
:1059900048506EA494888976000000606020C000A2
:1059A00000000000000000000000000204080810D1
:1059B00010101010100808040200004020101008F9
:1059C000080808080810102040000000000010100F
:1059D000D63838D61010000000000000000010106B
:1059E0001010FE1010101000000000000000000059
:1059F000000000000000606020C000000000000007
:105A000000007F0000000000000000000000000017
:105A100000000000000060600000000001020204BD
:105A20000408081010202040400000000018244204
:105A3000424242424242241800000000001070100E
:105A4000101010101010107C00000000003C4242AA
:105A5000420404081020427E00000000003C424244
:105A600004180402024244380000000000040C1430
:105A7000242444447E04041E00000000007E4040B4
:105A8000405864020242443800000000001C2440D8
:105A9000405864424242241800000000007E444402
:105AA000080810101010101000000000003C4242C6
:105AB000422418244242423C0000000000182442C4
:105AC0004242261A020224380000000000000000B2
:105AD0001818000000001818000000000000000066
